{
  "_format": "hh-sol-artifact-1",
  "contractName": "Raffle",
  "sourceName": "contracts/Raffle.sol",
  "abi": [
    {
      "inputs": [
        {
          "internalType": "uint256",
          "name": "entranceFee",
          "type": "uint256"
        },
        {
          "internalType": "uint256",
          "name": "interval",
          "type": "uint256"
        },
        {
          "internalType": "address",
          "name": "vrfCoordinatorV2",
          "type": "address"
        },
        {
          "internalType": "bytes32",
          "name": "gasLane",
          "type": "bytes32"
        },
        {
          "internalType": "uint64",
          "name": "subscriptionId",
          "type": "uint64"
        },
        {
          "internalType": "uint32",
          "name": "callbackGasLimit",
          "type": "uint32"
        }
      ],
      "stateMutability": "nonpayable",
      "type": "constructor"
    },
    {
      "inputs": [],
      "name": "Raffe__SendMoreToEnterRaffle",
      "type": "error"
    },
    {
      "inputs": [],
      "name": "Raffle__RaffleNotOpen",
      "type": "error"
    },
    {
      "inputs": [],
      "name": "Raffle__UpkeepNotNeeded",
      "type": "error"
    },
    {
      "anonymous": false,
      "inputs": [
        {
          "indexed": true,
          "internalType": "address",
          "name": "player",
          "type": "address"
        }
      ],
      "name": "RaffleEnter",
      "type": "event"
    },
    {
      "inputs": [],
      "name": "NUM_WORDS",
      "outputs": [
        {
          "internalType": "uint32",
          "name": "",
          "type": "uint32"
        }
      ],
      "stateMutability": "view",
      "type": "function"
    },
    {
      "inputs": [],
      "name": "REQUEST_CONFIRMATIONS",
      "outputs": [
        {
          "internalType": "uint16",
          "name": "",
          "type": "uint16"
        }
      ],
      "stateMutability": "view",
      "type": "function"
    },
    {
      "inputs": [
        {
          "internalType": "bytes",
          "name": "",
          "type": "bytes"
        }
      ],
      "name": "checkUpkeep",
      "outputs": [
        {
          "internalType": "bool",
          "name": "upkeepNeeded",
          "type": "bool"
        },
        {
          "internalType": "bytes",
          "name": "",
          "type": "bytes"
        }
      ],
      "stateMutability": "view",
      "type": "function"
    },
    {
      "inputs": [],
      "name": "enterRaffle",
      "outputs": [],
      "stateMutability": "payable",
      "type": "function"
    },
    {
      "inputs": [],
      "name": "i_callbackGasLimit",
      "outputs": [
        {
          "internalType": "uint32",
          "name": "",
          "type": "uint32"
        }
      ],
      "stateMutability": "view",
      "type": "function"
    },
    {
      "inputs": [],
      "name": "i_entranceFee",
      "outputs": [
        {
          "internalType": "uint256",
          "name": "",
          "type": "uint256"
        }
      ],
      "stateMutability": "view",
      "type": "function"
    },
    {
      "inputs": [],
      "name": "i_gasLane",
      "outputs": [
        {
          "internalType": "bytes32",
          "name": "",
          "type": "bytes32"
        }
      ],
      "stateMutability": "view",
      "type": "function"
    },
    {
      "inputs": [],
      "name": "i_interval",
      "outputs": [
        {
          "internalType": "uint256",
          "name": "",
          "type": "uint256"
        }
      ],
      "stateMutability": "view",
      "type": "function"
    },
    {
      "inputs": [],
      "name": "i_subscriptionId",
      "outputs": [
        {
          "internalType": "uint64",
          "name": "",
          "type": "uint64"
        }
      ],
      "stateMutability": "view",
      "type": "function"
    },
    {
      "inputs": [],
      "name": "i_vrfCoordinator",
      "outputs": [
        {
          "internalType": "contract VRFCoordinatorV2Interface",
          "name": "",
          "type": "address"
        }
      ],
      "stateMutability": "view",
      "type": "function"
    },
    {
      "inputs": [
        {
          "internalType": "bytes",
          "name": "",
          "type": "bytes"
        }
      ],
      "name": "performUpkeep",
      "outputs": [],
      "stateMutability": "nonpayable",
      "type": "function"
    },
    {
      "inputs": [],
      "name": "s_lastTimeStamp",
      "outputs": [
        {
          "internalType": "uint256",
          "name": "",
          "type": "uint256"
        }
      ],
      "stateMutability": "view",
      "type": "function"
    },
    {
      "inputs": [
        {
          "internalType": "uint256",
          "name": "",
          "type": "uint256"
        }
      ],
      "name": "s_players",
      "outputs": [
        {
          "internalType": "address payable",
          "name": "",
          "type": "address"
        }
      ],
      "stateMutability": "view",
      "type": "function"
    },
    {
      "inputs": [],
      "name": "s_raffleState",
      "outputs": [
        {
          "internalType": "enum Raffle.RaffleState",
          "name": "",
          "type": "uint8"
        }
      ],
      "stateMutability": "view",
      "type": "function"
    }
  ],
  "bytecode": "0x60e06040523480156200001157600080fd5b506040516200123738038062001237833981810160405281019062000037919062000155565b85608081815250508460a08181525050426002819055508373ffffffffffffffffffffffffffffffffffffffff1660c08173ffffffffffffffffffffffffffffffffffffffff1660601b815250508260038190555081600460006101000a81548167ffffffffffffffff021916908367ffffffffffffffff16021790555080600460086101000a81548163ffffffff021916908363ffffffff160217905550505050505050620002e4565b600081519050620000f38162000262565b92915050565b6000815190506200010a816200027c565b92915050565b600081519050620001218162000296565b92915050565b6000815190506200013881620002b0565b92915050565b6000815190506200014f81620002ca565b92915050565b60008060008060008060c087890312156200017557620001746200025d565b5b60006200018589828a0162000110565b96505060206200019889828a0162000110565b9550506040620001ab89828a01620000e2565b9450506060620001be89828a01620000f9565b9350506080620001d189828a016200013e565b92505060a0620001e489828a0162000127565b9150509295509295509295565b6000620001fe826200020f565b9050919050565b6000819050919050565b600073ffffffffffffffffffffffffffffffffffffffff82169050919050565b6000819050919050565b600063ffffffff82169050919050565b600067ffffffffffffffff82169050919050565b600080fd5b6200026d81620001f1565b81146200027957600080fd5b50565b620002878162000205565b81146200029357600080fd5b50565b620002a1816200022f565b8114620002ad57600080fd5b50565b620002bb8162000239565b8114620002c757600080fd5b50565b620002d58162000249565b8114620002e157600080fd5b50565b60805160a05160c05160601c610f0b6200032c6000396000818161053301526107b2015260008181610639015261069d01526000818161034001526107490152610f0b6000f3fe6080604052600436106100dd5760003560e01c806372cf6e341161007f578063ae771f6b11610059578063ae771f6b14610280578063aebc4550146102bd578063cc45483f146102e8578063d757d02714610313576100dd565b806372cf6e34146101ff5780637ea3e6c11461022a5780638e879c8a14610255576100dd565b8063470cdf97116100bb578063470cdf971461014057806367f082b01461016b5780636919207d146101965780636e04ff0d146101c1576100dd565b80632cfcc539146100e257806334854043146100ec5780634585e33b14610117575b600080fd5b6100ea61033e565b005b3480156100f857600080fd5b506101016104ab565b60405161010e9190610ba5565b60405180910390f35b34801561012357600080fd5b5061013e600480360381019061013991906108eb565b6104b1565b005b34801561014c57600080fd5b50610155610618565b6040516101629190610bdb565b60405180910390f35b34801561017757600080fd5b50610180610632565b60405161018d9190610b8a565b60405180910390f35b3480156101a257600080fd5b506101ab610637565b6040516101b89190610ba5565b60405180910390f35b3480156101cd57600080fd5b506101e860048036038101906101e39190610938565b61065b565b6040516101f6929190610ab6565b60405180910390f35b34801561020b57600080fd5b50610214610742565b6040516102219190610bc0565b60405180910390f35b34801561023657600080fd5b5061023f610747565b60405161024c9190610ba5565b60405180910390f35b34801561026157600080fd5b5061026a61076b565b6040516102779190610ae6565b60405180910390f35b34801561028c57600080fd5b506102a760048036038101906102a29190610981565b610771565b6040516102b49190610a9b565b60405180910390f35b3480156102c957600080fd5b506102d26107b0565b6040516102df9190610b54565b60405180910390f35b3480156102f457600080fd5b506102fd6107d4565b60405161030a9190610b6f565b60405180910390f35b34801561031f57600080fd5b506103286107e5565b6040516103359190610bc0565b60405180910390f35b7f0000000000000000000000000000000000000000000000000000000000000000341015610398576040517f2881c34400000000000000000000000000000000000000000000000000000000815260040160405180910390fd5b600060018111156103ac576103ab610e1d565b5b60008054906101000a900460ff1660018111156103cc576103cb610e1d565b5b14610403576040517fd24a271400000000000000000000000000000000000000000000000000000000815260040160405180910390fd5b6001339080600181540180825580915050600190039060005260206000200160009091909190916101000a81548173ffffffffffffffffffffffffffffffffffffffff021916908373ffffffffffffffffffffffffffffffffffffffff1602179055503373ffffffffffffffffffffffffffffffffffffffff167f0805e1d667bddb8a95f0f09880cf94f403fb596ce79928d9f29b74203ba284d460405160405180910390a2565b60025481565b60006104cb6040518060200160405280600081525061065b565b50905080610505576040517f8e4bc81700000000000000000000000000000000000000000000000000000000815260040160405180910390fd5b60016000806101000a81548160ff0219169083600181111561052a57610529610e1d565b5b021790555060007f000000000000000000000000000000000000000000000000000000000000000073ffffffffffffffffffffffffffffffffffffffff16635d3b1d30600354600460009054906101000a900467ffffffffffffffff166003600460089054906101000a900463ffffffff1660016040518663ffffffff1660e01b81526004016105be959493929190610b01565b602060405180830381600087803b1580156105d857600080fd5b505af11580156105ec573d6000803e3d6000fd5b505050506040513d601f19601f8201168201806040525081019061061091906109ae565b905050505050565b600460009054906101000a900467ffffffffffffffff1681565b600381565b7f000000000000000000000000000000000000000000000000000000000000000081565b6000606060008060009054906101000a900460ff16600181111561068257610681610e1d565b5b6000600181111561069657610695610e1d565b5b14905060007f0000000000000000000000000000000000000000000000000000000000000000600254426106ca9190610c68565b119050600080471190506000806001805490501190508280156106ea5750815b80156106f35750835b80156106fc5750805b9550856040518060400160405280600381526020017f30783000000000000000000000000000000000000000000000000000000000008152509550955050505050915091565b600181565b7f000000000000000000000000000000000000000000000000000000000000000081565b60035481565b6001818154811061078157600080fd5b906000526020600020016000915054906101000a900473ffffffffffffffffffffffffffffffffffffffff1681565b7f000000000000000000000000000000000000000000000000000000000000000081565b60008054906101000a900460ff1681565b600460089054906101000a900463ffffffff1681565b600061080e61080984610c1b565b610bf6565b90508281526020810184848401111561082a57610829610e8a565b5b610835848285610d7b565b509392505050565b60008083601f84011261085357610852610e80565b5b8235905067ffffffffffffffff8111156108705761086f610e7b565b5b60208301915083600182028301111561088c5761088b610e85565b5b9250929050565b600082601f8301126108a8576108a7610e80565b5b81356108b88482602086016107fb565b91505092915050565b6000813590506108d081610ebe565b92915050565b6000815190506108e581610ebe565b92915050565b6000806020838503121561090257610901610e94565b5b600083013567ffffffffffffffff8111156109205761091f610e8f565b5b61092c8582860161083d565b92509250509250929050565b60006020828403121561094e5761094d610e94565b5b600082013567ffffffffffffffff81111561096c5761096b610e8f565b5b61097884828501610893565b91505092915050565b60006020828403121561099757610996610e94565b5b60006109a5848285016108c1565b91505092915050565b6000602082840312156109c4576109c3610e94565b5b60006109d2848285016108d6565b91505092915050565b6109e481610c9c565b82525050565b6109f381610cae565b82525050565b610a0281610cba565b82525050565b6000610a1382610c4c565b610a1d8185610c57565b9350610a2d818560208601610d8a565b610a3681610e99565b840191505092915050565b610a4a81610d33565b82525050565b610a5981610d45565b82525050565b610a6881610cd7565b82525050565b610a7781610d05565b82525050565b610a8681610d0f565b82525050565b610a9581610d1f565b82525050565b6000602082019050610ab060008301846109db565b92915050565b6000604082019050610acb60008301856109ea565b8181036020830152610add8184610a08565b90509392505050565b6000602082019050610afb60008301846109f9565b92915050565b600060a082019050610b1660008301886109f9565b610b236020830187610a8c565b610b306040830186610a5f565b610b3d6060830185610a7d565b610b4a6080830184610a7d565b9695505050505050565b6000602082019050610b696000830184610a41565b92915050565b6000602082019050610b846000830184610a50565b92915050565b6000602082019050610b9f6000830184610a5f565b92915050565b6000602082019050610bba6000830184610a6e565b92915050565b6000602082019050610bd56000830184610a7d565b92915050565b6000602082019050610bf06000830184610a8c565b92915050565b6000610c00610c11565b9050610c0c8282610dbd565b919050565b6000604051905090565b600067ffffffffffffffff821115610c3657610c35610e4c565b5b610c3f82610e99565b9050602081019050919050565b600081519050919050565b600082825260208201905092915050565b6000610c7382610d05565b9150610c7e83610d05565b925082821015610c9157610c90610dee565b5b828203905092915050565b6000610ca782610ce5565b9050919050565b60008115159050919050565b6000819050919050565b6000819050610cd282610eaa565b919050565b600061ffff82169050919050565b600073ffffffffffffffffffffffffffffffffffffffff82169050919050565b6000819050919050565b600063ffffffff82169050919050565b600067ffffffffffffffff82169050919050565b6000610d3e82610d57565b9050919050565b6000610d5082610cc4565b9050919050565b6000610d6282610d69565b9050919050565b6000610d7482610ce5565b9050919050565b82818337600083830152505050565b60005b83811015610da8578082015181840152602081019050610d8d565b83811115610db7576000848401525b50505050565b610dc682610e99565b810181811067ffffffffffffffff82111715610de557610de4610e4c565b5b80604052505050565b7f4e487b7100000000000000000000000000000000000000000000000000000000600052601160045260246000fd5b7f4e487b7100000000000000000000000000000000000000000000000000000000600052602160045260246000fd5b7f4e487b7100000000000000000000000000000000000000000000000000000000600052604160045260246000fd5b600080fd5b600080fd5b600080fd5b600080fd5b600080fd5b600080fd5b6000601f19601f8301169050919050565b60028110610ebb57610eba610e1d565b5b50565b610ec781610d05565b8114610ed257600080fd5b5056fea264697066735822122034f3ce9c1693dd25f94c9238a06f2ed2cadd3076e9eed9bd038057b3e625c1ad64736f6c63430008070033",
  "linkReferences": {},
  "deployedLinkReferences": {}
}